:100000000C9442050C946A050C946A050C946A05DC
:100010000C946A050C946A050C946A050C946A05A4
:100020000C946A050C946A050C946A050C946A0594
:100030000C946A050C946A050C946A050C946A0584
:100040000C94C4170C946A050C9492170C946C17BA
:100050000C946A050C946A050C946A050C946A0564
:100060000C940E180C946A0500000000003E5B4FD3
:100070005B3E3E6B4F6B3E1C3E7C3E1C183C7E3C08
:10008000181C577D571C1C5E7F5E1C00183C180016
:10009000FFE7C3E7FF0018241800FFE7DBE7FF30A6
:1000A000483A060E2629792926407F050507407F14
:1000B00005253F5A3CE73C5A7F3E1C1C08081C1C87
:1000C0003E7F14227F22145F5F005F5F06097F017D
:1000D0007F006689956A606060606094A2FFA29468
:1000E00008047E040810207E201008082A1C080836
:1000F0001C2A08081E101010100C1E0C1E0C303884
:100100003E3830060E3E0E06000000000000005F84
:1001100000000007000700147F147F14242A7F2AA0
:100120001223130864623649562050000807030062
:10013000001C2241000041221C002A1C7F1C2A08AE
:10014000083E080800807030000808080808000011
:1001500060600020100804023E5149453E00427F85
:10016000400072494949462141494D331814127FD4
:100170001027454545393C4A494931412111090774
:100180003649494936464949291E000014000000F5
:1001900040340000000814224114141414140041C7
:1001A00022140802015909063E415D594E7C121184
:1001B000127C7F494949363E414141227F414141BC
:1001C0003E7F494949417F090909013E4141517337
:1001D0007F0808087F00417F41002040413F017FA8
:1001E000081422417F404040407F021C027F7F0470
:1001F00008107F3E4141413E7F090909063E4151B9
:10020000215E7F09192946264949493203017F01A8
:10021000033F4040403F1F2040201F3F4038403FA9
:10022000631408146303047804036159494D4300BF
:100230007F4141410204081020004141417F0402F6
:10024000010204404040404000030708002054548D
:1002500078407F284444383844444428384444286B
:100260007F385454541800087E090218A4A49C78BE
:100270007F0804047800447D40002040403D007F1A
:100280001028440000417F40007C047804787C08FA
:100290000404783844444438FC18242418182424CE
:1002A00018FC7C08040408485454542404043F44B3
:1002B000243C4040207C1C2040201C3C4030403CE2
:1002C00044281028444C9090907C4464544C440042
:1002D00008364100000077000000413608000201A6
:1002E0000204023C2623263C1EA1A161123A404092
:1002F000207A38545455592155557941225454780F
:1003000042215554784020545579400C1E527212A7
:100310003955555559395454545939555454580030
:1003200000457C410002457D420001457C407D1234
:1003300011127DF0282528F07C5455450020545496
:100340007C547C0A097F4932494949323A44444441
:100350003A324A4848303A4141217A3A424020787C
:10036000009DA0A07D3D4242423D3D4040403D3C7D
:1003700024FF2424487E4943662B2FFC2F2BFF09A2
:1003800029F620C0887E0903205454794100004496
:100390007D413048484A32384040227A007A0A0A81
:1003A000727D0D19317D2629292F282629292926F4
:1003B00030484D4020380808080808080808382F39
:1003C00010C8ACBA2F102834FA00007B00000814C3
:1003D0002A142222142A14085500550055AA55AA99
:1003E00055AAFF55FF55FF000000FF00101010FF39
:1003F00000141414FF001010FF00FF1010F010F094
:10040000141414FC001414F700FF0000FF00FF1484
:1004100014F404FC141417101F10101F101F1414D0
:10042000141F00101010F0000000001F101010101A
:100430001F10101010F010000000FF10101010100E
:1004400010101010FF10000000FF140000FF00FF4C
:1004500000001F10170000FC04F4141417101714E8
:1004600014F404F40000FF00F7141414141414140A
:10047000F700F7141414171410101F101F1414147D
:10048000F4141010F010F000001F101F0000001FE7
:1004900014000000FC140000F010F01010FF10FF1A
:1004A000141414FF141010101F00000000F010FFAF
:1004B000FFFFFFFFF0F0F0F0F0FFFFFF0000000093
:1004C00000FFFF0F0F0F0F0F3844443844FC4A4A17
:1004D0004A347E02020606027E027E0263554941CC
:1004E000633844443C04407E201E2006027E020203
:1004F00099A5E7A5991C2A492A1C4C7201724C3017
:100500004A4D4D303048784830BC625A463D3E49ED
:100510004949007E0101017E2A2A2A2A2A44445F91
:10052000444440514A444040444A51400000FF0185
:1005300003E080FF000008086B6B08361236243693
:10054000060F090F060000181800000010100030F8
:1005500040FF0101001F01011E00191D1712003C80
:100560003C3C3C0000000000000103070F1F3F7FE0
:100570000080C0E0F0F8FCFE00000008000201006E
:10058000000304070000000000000000DB40A4A6F8
:100590002EAF2000A1C8D300408DAED580A80000AA
:1005A000600000000000000000000000000000E00B
:1005B0000000000000000000000000000001E0005A
:1005C00000000000000000000000000001F000003A
:1005D000000000000000000000000003F000000028
:1005E0000000000000000000000007F00000000014
:1005F00000000000000000000007F80000000000FC
:1006000000000000000000000FF800000003C00020
:100610007E000001E0007F0FF800000003C000FE34
:10062000000001E000FFEFF800000003C000FE0042
:100630000001E000FFFFF800000003C000F0000030
:10064000000F007FFE7FC0000003C000F00000002C
:100650000F003FFE7FF83FF1FBCFFCFEF3BC3DEF08
:10066000E01FFE7FFF7FFBFFDFFEFEFFBC3DEFE0F4
:100670001FC6FFFF7FFBFFDFFEFEFFBC3DEFE00F6D
:10068000E3C7FE787BC3DE1EF0FFBC3DEF0007FF33
:1006900087FC787BC3DE1EF0F83C3DEF0001FFFFD6
:1006A000F0007BC3C01EF0F03C3DEF0001F37FE0A3
:1006B0003FFBC3CFFEF0F03C3DEF0003E33F807F04
:1006C000FBC3DFFEF0F03C3DEF0007E73C00787B2A
:1006D000C3DE1EF0F03C3DEF0007FFBE00787BC399
:1006E000DE1EF0F03C3DEF0007FFFE00787BC3DE2E
:1006F0001EF0F03C3DEF000FFFFE007FFBFFDFFE32
:10070000F0F03FFDEFE00FFFFF007FFBFFDFFEF0AB
:10071000F03FFDEFE00FF9FF003E79F9CF9EF0F0DA
:100720001F3DE7E01FF1FF00000000000000000097
:100730000000001F80FF007FFFFFFFFFFFFFFFFFA4
:10074000FFE01C007F007FFFFFFFFEB46D888D1867
:10075000E000001F007FFFFFFFFE95AD7DB577E055
:1007600000000F007FFFFFFFFEA5AD9D8D19E0008B
:100770000006007FFFFFFFFEB5ADEDB57EE0000097
:100780000000000180000000000000000000038065
:1007900000000000000000000007C0000000000092
:1007A0000000000007C00000000000000000000F73
:1007B000C00000000000000000001FE0000000007A
:1007C00000000000001FE00000000000000000002A
:1007D0003FE00000000000000000003FF0000000CB
:1007E0000000000000007FF0000000000000001F7B
:1007F000F87FF0000000000000003FFE7FF00000E6
:1008000000000000003FFF7FF0000000000000003B
:100810001FFFFBE0000000000000000FFFF9FFC019
:100820000000000000000FFFF9FFF80000000000CA
:100830000007FFF1FFFF00000000000003FC73FF52
:10084000FF80000000000001FE3FFFFF800000006D
:10085000000000FF1E0FFF000000000000007FFEF0
:100860001FFC000000000000003FFFFFF800000038
:10087000000000000FDFFFE0000000000000001F8C
:1008800019FFC0000000000000003F3CFF00000016
:1008900000000000007E7CF8000000000000000066
:1008A0007FFE7C0000000000000000FFFFFC000055
:1008B000000000000000FFFFFE000000000000003C
:1008C00000FFFFFE0000000000000001FFEFFE003F
:1008D00000000000000001FFCFFE0000000000004B
:1008E0000003FF07FE0000000000000003FC07FEFD
:1008F0000000000000000003F003FE000000000004
:100900000000018000FE0000000000000000000068
:100910007E000000000000000000003E000000001B
:100920000000000000000C00000000000007800034
:10093000FC000003C0000000078001FC000003C0B1
:10094000000000078001FC000003C00000000780D9
:1009500001E00000001E000000078001E000000030
:100960001E007FE3F79FF9FDE7787BDFC0FFF7FF0D
:10097000BFFDFDFF787BDFC0FFF7FFBFFDFDFF7808
:100980007BDFC0F0F787BC3DE1FF787BDE00F0F74E
:1009900087BC3DE1F0787BDE0000F787803DE1E039
:1009A000787BDE007FF7879FFDE1E0787BDE00FF4C
:1009B000F787BFFDE1E0787BDE00F0F787BC3DE123
:1009C000E0787BDE00F0F787BC3DE1E0787BDE007D
:1009D000F0F787BC3DE1E0787BDE00FFF7FFBFFD6D
:1009E000E1E07FFBDFC0FFF7FFBFFDE1E07FFBDF62
:1009F000C07CF3F39F3DE1E03E7BCFC000000000F0
:100A000000000000000000FFFFFFFFFFFFFFFFFFEF
:100A1000FFC0FFFFFFFFFD68DB111A31C0FFFFFFC2
:100A2000FFFD2B5AFB6AEFC0FFFFFFFFFD4B5B3B57
:100A30001A33C0FFFFFFFFFD6B5BDB6AFDC00000E8
:100A40000000250028002B000000000024002700E3
:100A50002A00040404040404040402020202020240
:100A60000303030303030102040810204080010272
:100A7000040810200102040810202200FF210000B9
:100A80002D19DD2111241FBECFEFD8E0DEBFCDBF71
:100A900023E0A4ECB1E001C01D92A338B207E1F756
:100AA00011E0A0E0B1E0E8EEF6E402C005900D929E
:100AB000A43CB107D9F715E0C1E4D5E004C0219703
:100AC000FE010E943022C034D107C9F70E94B91933
:100AD0000C9467230C94000091E09093870280931C
:100AE00086021092850210928402089590E0FC0123
:100AF000EA59F54F24918E5A954FFC018491882331
:100B000099F090E0880F991FFC01E85BF54FA591E3
:100B1000B491FC01E25CF54F859194918FB7F89404
:100B2000EC91E22BEC938FBF0895089508950895FA
:100B3000AF92BF92CF92DF92EF92FF920F931F93EB
:100B4000CF93DF936C017B018B01040F151FEB0129
:100B50005E01AE18BF08C017D10759F06991D601E0
:100B6000ED91FC910190F081E02DC6010995892B52
:100B700079F7C501DF91CF911F910F91FF90EF9011
:100B8000DF90CF90BF90AF900895FC01538D448DBE
:100B9000252F30E0842F90E0821B930B541710F028
:100BA000CF96089501970895FC01918D828D981735
:100BB00061F0A28DAE0FBF2FB11D5D968C91928D0D
:100BC0009F5F9F73928F90E008958FEF9FEF08953E
:100BD000FC01918D828D981731F0828DE80FF11D07
:100BE000858D90E008958FEF9FEF0895FC01918D22
:100BF000228D892F90E0805C9F4F821B91098F731B
:100C00009927089588E892E00E94F60521E0892B53
:100C100009F420E0822F089580E090E0892B29F0EC
:100C20000E94020681110C9400000895FC01A48D1D
:100C3000A80FB92FB11DA35ABF4F2C91848D90E0FE
:100C400001968F739927848FA689B7892C93A089E1
:100C5000B1898C91837080648C93938D848D98136B
:100C600006C00288F389E02D80818F7D80830895FE
:100C7000EF92FF920F931F93CF93DF93EC0181E0EC
:100C8000888F9B8D8C8D98131AC0E889F989808193
:100C900085FF15C09FB7F894EE89FF896083E889C6
:100CA000F98980818370806480839FBF81E090E0B8
:100CB000DF91CF911F910F91FF90EF900895F62E45
:100CC0000B8D10E00F5F1F4F0F731127E02E8C8DDF
:100CD0008E110CC00FB607FCFACFE889F989808124
:100CE00085FFF5CFCE010E941606F1CFEB8DEC0FFC
:100CF000FD2FF11DE35AFF4FF0829FB7F8940B8F41
:100D0000EA89FB8980818062CFCFCF93DF93EC01AA
:100D1000888D8823B9F0AA89BB89E889F9898C91E3
:100D200085FD03C0808186FD0DC00FB607FCF7CF9F
:100D30008C9185FFF2CF808185FFEDCFCE010E949F
:100D40001606E9CFDF91CF91089590E0FC01E858B5
:100D5000FA4F2491FC01EA59F54F3491FC01EE5A07
:100D6000F54FE491EE23C9F0222339F0233001F14D
:100D7000A8F4213019F1223029F1F0E0EE0FFF1F25
:100D8000E25CF54FA591B4918FB7F894EC916111A5
:100D900026C030953E233C938FBF08952730A9F09D
:100DA0002830C9F0243049F7809180008F7D03C03E
:100DB000809180008F7780938000DFCF84B58F771C
:100DC00084BDDBCF84B58F7DFBCF8091B0008F7762
:100DD0008093B000D2CF8091B0008F7DF9CF3E2BB1
:100DE000DACF3FB7F89480912D0290912E02A09116
:100DF0002F02B091300226B5A89B05C02F3F19F0F5
:100E00000196A11DB11D3FBFBA2FA92F982F88278A
:100E1000BC01CD01620F711D811D911D42E0660F65
:100E2000771F881F991F4A95D1F708958F929F9237
:100E3000AF92BF92CF92DF92EF92FF924B015C0193
:100E40000E94F1066B017C010E94F1066C197D097C
:100E50008E099F09683E734081059105A8F321E042
:100E6000821A9108A108B10888EEC80E83E0D81E46
:100E7000E11CF11C81149104A104B10429F7FF9035
:100E8000EF90DF90CF90BF90AF909F908F9008959C
:100E90002FB7F8946091290270912A0280912B0259
:100EA00090912C022FBF0895EF92FF920F931F9302
:100EB000CF93DF93EC01EC80FD806E157F050CF085
:100EC00070C057FF04C0240F351F50E040E08E81F2
:100ED0009F81FA01E20FF31F8E179F071CF49C01FC
:100EE000241B350B121613060CF05BC0922F842FB7
:100EF0008695869586958E9DD0018F9DB00D112487
:100F00006A0F7B1FAF8DB8A1A60FB71F477049F1BD
:100F100088E0841B482F682F70E0FB01E059FA4FEE
:100F2000E491281708F063C0621B71092FEF30E0CD
:100F300002C0359527956A95E2F7E2230130110545
:100F400039F0B0F10230110561F58C91E82702C04B
:100F50008C91E82BEC93941720F12C813D81A20F0A
:100F6000B31FE92FE41BE83078F00230110521F5BA
:100F70008E2F9C9190959C932C813D81A20FB31F45
:100F800088508830B0F7E770EE2359F0F0E0E85968
:100F9000FA4FE49101301105F9F010F1023011051A
:100FA00019F1DF91CF911F910F91FF90EF9008956C
:100FB000E0958C91E823CECF81E00115110509F46D
:100FC00080E081959E2F8C932C813D81A20FB31FD1
:100FD00098509830C0F7D7CF8C91E82BEC93E1CFA5
:100FE000E0958C91E823FACF8C91E827F7CF013078
:100FF000110509F4ADCFE0F20230110509F4A5CFD7
:10100000AE0DBF1DAECF0F931F93CF93DF9377FF2E
:1010100004C0260F371F70E060E0DC011496CD910C
:10102000DC91FB01E20FF31FCE17DF071CF49E01DA
:10103000261B370B121613064CF5FA0157FD37968F
:10104000A3E0F595E795AA95E1F7EC9FD001ED9F18
:10105000B00DFC9FB00D11246A0F7B1FDC015F9661
:10106000ED91FC91E60FF71F4770552781E090E066
:1010700001C0880F4A95EAF7482F0130110559F051
:10108000A8F02E0F3F1F02301105E1F0DF91CF9144
:101090001F910F9108952E0F3F1FE217F307B1F331
:1010A0008191DF011197842B8C93F7CF80952E0FC0
:1010B0003F1FE217F30751F39191DF011197982336
:1010C0009C93F7CFE217F30709F38191DF011197A2
:1010D00084278C93F7CF0F931F93FA01DC01569668
:1010E0004C9156974230E9F04330A1F1413061F51F
:1010F00014964D915C91DA01AE1BBF0BFD01E21B12
:10110000F30B77FD0BC0DC0116964D915C916417D3
:10111000750724F4AB01BF010E9403081F910F91D2
:10112000089514964D915C91DA01A61BB70BBD0191
:1011300061507109DC0116964D915C91DA01AE1B8C
:10114000BF0BFD01E21BF30B77FDE8CFAF010E945F
:101150005407E4CF16964D915C91DA01A61BB70BAC
:10116000BD0161507109CDCF0F931F93FA01DC01CE
:1011700056964C9156974230A9F0433091F1413048
:1011800019F514964D915C91DA01AE1BBF0BFD0170
:101190003197F7FD04C0AB01BF010E9454071F91B6
:1011A0000F91089514964D915C91DA01A61BB70B2F
:1011B000BD01DC0116964D915C91DA01AE1BBF0BAF
:1011C000FD013197621B730BF7FDE9CFDC01169629
:1011D0004D915C91E417F50714F7AF010E940308E5
:1011E000DECF16964D915C91DA01A61BB70BBD01BF
:1011F000621B730BCECFFC0177FD64C080859185A7
:10120000681779070CF05EC057FD5CC08285938536
:10121000481759070CF056C086898230B1F08330E8
:1012200029F1813041F484819581841B950BAB01B8
:10123000BC01615071092130310509F108F443C046
:101240002230310509F463C0089584819581DC0161
:10125000A61BB70BBD016150710986819781DC0126
:10126000A41BB50BAD0141505109E5CF8681978193
:10127000861B970BBA01AC0141505109DCCFCA0162
:1012800057FD0796A3E095958795AA95E1F7A48168
:10129000B5818A9F90018B9F300D9A9F300D11244C
:1012A000620F731F078CF0A1E02DE60FF71F477048
:1012B000552721E030E001C0220F4A95EAF78081EE
:1012C000822B80830895CA0157FD079633E09595D8
:1012D00087953A95E1F7A481B5818A9F90018B9F0C
:1012E000300D9A9F300D1124620F731F078CF0A1EF
:1012F000E02DE60FF71F4770552781E090E001C011
:10130000880F4A95EAF7809590818923DACFCA0140
:1013100057FD079623E0959587952A95E1F7A481D7
:10132000B5818A9F90018B9F300D9A9F300D1124BB
:10133000620F731F078CF0A1E02DE60FF71F4770B7
:10134000552721E030E001C0220F4A95EAF780815D
:101350008227B7CF20910502260F3327331F213272
:101360003105ECF420917E02FC0190E080E0243015
:1013700069F082E00895A09105022191AC014B51E2
:101380005E4FA40FB52FB11D2C930196861798F3CD
:1013900080910502680F6093050280E0089581E066
:1013A000089510927E0281E080935D0210925802AF
:1013B00061E082E10E94A50661E083E10E94A5064A
:1013C000E9EBF0E080818E7F808380818D7F808358
:1013D00088E48093B80085E48093BC000895CF939F
:1013E000DF9391E09093E4018823B9F0C091B800B5
:1013F000D091BA008091BC008A7B8093BC0060E0F1
:1014000082E10E94A50660E083E10E94A5060E9499
:10141000D109D093BA00C093B800DF91CF9108955D
:10142000CF92DF92EF92FF920F931F93CF93DF93B0
:10143000D82FC62F613208F098C00E94F1066B01C8
:101440007C0180917E0281116BC081E080937E02DD
:1014500080935D029FEF90935C0210925B029C0F61
:1014600090935A028093590280915902DD0FD82B34
:10147000D093590280915802813009F078C01092BF
:1014800058020E94F1066B017C0180915902809301
:10149000BB008091800290918102A0918202B09164
:1014A0008302892B8A2B8B2BA1F00E94F1060091DD
:1014B00080021091810220918202309183026C1986
:1014C0007D098E099F09061717072807390708F4B1
:1014D00048C08091BC0083FDD8CF85EC8093BC00D0
:1014E0000E94F1066B017C0180917E02813009F43B
:1014F00040C080915B028C1710F4C0915B02E8E35E
:10150000F2E0AEE5B2E080E08C1355C08C2FDF91A5
:10151000CF911F910F91FF90EF90DF90CF900895A2
:101520008091800290918102A0918202B091830209
:10153000892B8A2B8B2B09F484CF0E94F106009112
:1015400080021091810220918202309183026C19F5
:101550007D098E099F09061717072807390708F024
:1015600070CF80917F020E94EF09C0E0CFCF85EE5F
:10157000B5CF8091800290918102A0918202B091BA
:101580008302892B8A2B8B2B09F4AECF0E94F106A4
:101590000091800210918102209182023091830299
:1015A0006C197D098E099F09061717072807390747
:1015B00008F09ACFD6CF91919D938F5FA5CFE09100
:1015C000370280913602E81730F4F0E0E25AFD4F1E
:1015D000808190E008958FEF9FEF089590913702FA
:1015E000809136022FEF3FEF981748F4E92FF0E093
:1015F000E25AFD4F208130E09F5F90933702C9018E
:1016000008958091360290913702891B990B0895B5
:10161000CF92DF92EF92FF920F931F93CF93DF93BE
:101620007C01CB018A0120918702222389F0EB0102
:101630006B01C40ED51ECC15DD0569F06991D7018B
:10164000ED91FC910190F081E02DC7010995F3CF58
:10165000642F0E94AA09C801DF91CF911F910F91B9
:10166000FF90EF90DF90CF900895CF93DF931F927C
:10167000CDB7DEB76983209187022223F9F020914C
:101680008402203258F021E030E0FC0133832283D1
:1016900090E080E00F90DF91CF91089580918502D6
:1016A000E82FF0E0EC53FE4F998190838F5F809399
:1016B00085028093840281E090E0ECCF61E0CE016E
:1016C00001960E94AA09F7CFCF92DF92EF92FF9284
:1016D0000F931F93CF93DF93D091840281E0D13297
:1016E00008F09CC0C09186020E94F1066B017C014B
:1016F00080917E0281116CC082E080937E0281E045
:1017000080935D028FEF80935C0210925B02D09316
:101710005A02A4ECB1E0E8E3F2E080E0D8138DC017
:101720001092590280915902CC0FC82BC0935902D4
:1017300080915802813009F084C0109258020E94B2
:10174000F1066B017C01809159028093BB0080916E
:10175000800290918102A0918202B0918302892B34
:101760008A2B8B2BA1F00E94F10600918002109130
:10177000810220918202309183026C197D098E09C9
:101780009F09061717072807390708F442C08091F8
:10179000BC0083FDD8CF85EC8093BC000E94F1068D
:1017A0006B017C0180917E02823009F44CC08091F3
:1017B0005C028F3F09F469C080915C02803209F4B9
:1017C00066C080915C02803309F463C084E026C067
:1017D0008091800290918102A0918202B091830257
:1017E000892B8A2B8B2B09F483CF0E94F106009161
:1017F00080021091810220918202309183026C1943
:101800007D098E099F09061717072807390708F071
:101810006FCF80917F020E94EF0985E010928502D0
:101820001092840210928702DF91CF911F910F9145
:10183000FF90EF90DF90CF9008959D9191938F5FEF
:101840006DCF85EEA9CF8091800290918102A09109
:101850008202B0918302892B8A2B8B2B09F4A2CFB1
:101860000E94F10600918002109181022091820273
:10187000309183026C197D098E099F09061717079D
:101880002807390708F08ECFC4CF80E0C7CF82E0A9
:10189000C5CF83E0C3CF0F931F93CF93DF93082F60
:1018A000162FC5E2D3E08B810E946C0589819A8155
:1018B000DC01ED91FC910190F081E02D602F099504
:1018C00089819A81DC01ED91FC910190F081E02DFC
:1018D000612F099589819A810E94640B8883DF9129
:1018E000CF911F910F910895FF920F931F93CF9364
:1018F000DF93F82E162F072FC5E2D3E08B810E94CD
:101900006C0589819A81DC01ED91FC910190F08157
:10191000E02D6F2D099589819A81DC01ED91FC9173
:101920000190F081E02D602F099589819A81DC0179
:10193000ED91FC910190F081E02D612F0995898155
:101940009A810E94640B8883DF91CF911F910F9140
:10195000FF90089508958EBD00000DB407FEFDCFE1
:101960008EB50895EF92FF920F931F93CF937C0152
:10197000C62F80915C0390915D03892B09F44EC0C2
:10198000809160030E946C0580915C0390915D03DF
:10199000DC01ED91FC910190F081E02D60E0099572
:1019A0008701EE24E394F12CC15080915C03909167
:1019B0005D03CF3F61F1B0E2EB16F104A8F00E94A5
:1019C000640B809160030E946C0580915C03909190
:1019D0005D03DC01ED91FC910190F081E02D60E070
:1019E0000995EE24E394F12C80915C0390915D03C2
:1019F000F8016491DC01ED91FC910190F081E02D02
:101A00000995BFEFEB1AFB0A0F5F1F4FCDCFCF91A8
:101A10001F910F91FF90EF900C94640BE0916C0379
:101A2000F0916D039081809172038095892380836A
:101A30008701C15008F438C0F801849120915A03FD
:101A400030915B03232B29F00E94AB0C0F5F1F4FDB
:101A5000F0CF28E030E040E8E0916803F0916903BE
:101A600090917003582F5423D9F05081952B908377
:101A7000E0916A03F0916B03908150917103952B73
:101A80009083E0916A03F0916B0350819091710310
:101A9000909595239083469521503109E9F6D6CF4C
:101AA000508190959523E3CFCF911F910F91FF9097
:101AB000EF9008951F93CF93DF93EC018D8D9E8D52
:101AC000892BF9F0162F89A10E946C058D8D9E8DB2
:101AD000DC01ED91FC910190F081E02D60E0099531
:101AE0008D8D9E8DDC01ED91FC910190F081E02DBA
:101AF000612F09958D8D9E8DDF91CF911F910C9453
:101B0000640BADA5BEA59C918BA9809589238C9370
:101B10008B8D9C8D892B31F0862FDF91CF911F917A
:101B20000C94AB0C28E030E080E8A9A5BAA599A9EF
:101B3000462F4823C1F04C91942B9C93ABA5BCA598
:101B40009C914AA9942B9C93ABA5BCA54C919AA9B6
:101B5000909594239C9386952150310931F7DF911C
:101B6000CF911F9108954C9190959423E6CF8CBD11
:101B70009DBD0895EF92FF920F931F93CF93DF9334
:101B800080915C0390915D03892B09F48DC02091B5
:101B9000740330917503409176035091770360E0B0
:101BA00074E284EF90E00E9406222051310941093D
:101BB000510956954795379527952093B80065E0CC
:101BC0008AE79AE00E94B20C6091430361508FE370
:101BD00093E00E945A0D2091450330914603C901BC
:101BE000079697FD079633E0959587953A95E1F727
:101BF0002091430330914403829F8001839F100D05
:101C0000929F100D1124C0915E03D0915F038091CB
:101C10005C0390915D030C0F1D1F892B09F483C099
:101C2000809160030E946C0580915C0390915D033C
:101C3000DC01ED91FC910190F081E02D60E40995CB
:101C4000EE24E394F12C80915C0390915D030C17DA
:101C50001D0709F440C0B0E2EB16F104A8F00E94A1
:101C6000640B809160030E946C0580915C039091ED
:101C70005D03DC01ED91FC910190F081E02D60E4C9
:101C80000995EE24E394F12C80915C0390915D031F
:101C90006991DC01ED91FC910190F081E02D0995B5
:101CA000BFEFEB1AFB0ACFCF80915A0390915B03F1
:101CB000892B31F080917D0390917E030E94B70DB6
:101CC000E0916E03F0916F03908180917303809592
:101CD0008923808374CF0E94640B80915C03909170
:101CE0005D03892B09F460C020917803309179035A
:101CF00040917A0350917B0360E074E284EF90E0BE
:101D00000E940622205131094109510956954795F3
:101D1000379527952093B800DF91CF911F910F91B0
:101D2000FF90EF900895E0916C03F0916D03808136
:101D300090917203892B80830C171D0771F2899192
:101D400020915A0330915B03232B19F00E94AB0CB6
:101D5000F3CF28E030E040E8E0916803F0916903B8
:101D600090917003582F5423D9F05081952B908374
:101D7000E0916A03F0916B03908150917103952B70
:101D80009083E0916A03F0916B035081909171030D
:101D9000909595239083469521503109E9F6CCCF53
:101DA000508190959523E3CFE0916E03F0916F03FE
:101DB000808190917303892B8083AECF1F93CF9343
:101DC000DF93EC01162F8D8D9E8D892BB1F12DA9FE
:101DD0003EA94FA958AD60E074E284EF90E00E9404
:101DE00006222051310941095109569547953795E9
:101DF00027952093B80066EA111167EACE010E9488
:101E00005A0D8D8D9E8D892B41F129AD3AAD4BAD8B
:101E10005CAD60E074E284EF90E00E940622205105
:101E200031094109510956954795379527952093D2
:101E3000B800DF91CF911F9108958B8D9C8D892BD8
:101E400021F08EAD9FAD0E94B70DEFA5F8A990814E
:101E50008CA9809589238083CECFEFA5F8A98081B6
:101E60009CA9892B8083E5CF0895FC016370668B64
:101E70008481958126813781613039F0633029F082
:101E800091878087338722870895318720879387BA
:101E9000828708952F923F924F925F926F927F9226
:101EA0008F929F92AF92BF92CF92DF92EF92FF926A
:101EB0000F931F93CF93DF93CDB7DEB76A970FB61B
:101EC000F894DEBF0FBECDBF9A8F898F7A83698366
:101ED0004A01D22E18870F833701BC2CDC0159969A
:101EE0002D913C915A972115310509F015C118968D
:101EF0008D919C911997681779070CF0D7C11A96A4
:101F00008D919C91481759070CF0D0C14C2C512C45
:101F1000B6E0CB9E600D711D11247C876B87161671
:101F200017060CF0C3C1EA2DF0E0FA87E98793E0C9
:101F3000EE0FFF1F9A95E1F7F88BEF87CF01840F23
:101F4000951F181619060CF0B1C1A98DBA8D5896B7
:101F50008C91811104C0BFEABD1508F4D394A98DFA
:101F6000BA8DED91FC9111970284F385E02DCD019E
:101F70000995B5E0DB9EC0011124E981FA81FC835B
:101F8000EB83312C212C9C0128593F4F388F2F8B0C
:101F90004A2D50E05E8B4D8BEF89F88DE20DF31DDD
:101FA00044919E828D82D12CC12C69817A81620DEF
:101FB000731D7A8B698B842F90E09C8B8B8BE98DC2
:101FC000FA8DA081B18140FF82C0F1E0BF126FC0E5
:101FD000AF126DC01C96ED91FC912F813885A40144
:101FE0004C0D5D1D69897A89898D9A8D0995EB89DA
:101FF000FC89F595E7954E2F5FEFC51AD50A6D81DF
:102000007E818D899E89680F791F7E836D8398E01C
:10201000C916D10481F6AFEF2A1A3A0AEB81FC8186
:10202000E40DF51DFC83EB83F5E02F16310409F078
:10203000B3CF2F81388526153705B9F0A98DBA8D14
:10204000ED91FC91B1E0BB1257C0AB1255C0698154
:102050007A816B5F7F4F0088F189E02D830128E052
:1020600030E0A401898D9A8D0995A98DBA8DED91E5
:10207000FC9111970688F789E02DCD016A960FB67D
:10208000F894DEBF0FBECDBFDF91CF911F910F91AE
:10209000FF90EF90DF90CF90BF90AF909F908F9088
:1020A0007F906F905F904F903F902F9009941E9675
:1020B000ED91FC91EF80F88409851A8592014D819C
:1020C0005E816B817C81898D9A8D099590CF2F815E
:1020D00038852615370509F48ACF31E0B31207C0D9
:1020E000A31205C01C96ED91FC91930178CF1E962A
:1020F000ED91FC917301E0CF6B857C8564197509C6
:102100000684F785E02D73010F8518899201A401DB
:10211000898D9A8D0995A9CFF901349694913297BA
:1021200045915491D91AB7E0DB9E400D511D112401
:10213000F901259134913C8B2B8BFA012590349039
:10214000FA013296749031963491398B32966490BC
:102150003196449041E04C1518F04A1508F07FC0C4
:10216000662D062C000C770B7C836B83842D042C4E
:10217000000C990B9E838D83A98DBA8DED91FC91F6
:1021800011970284F385E02DCD010995512CD12CB6
:10219000C12CEA2DF0E0FA87E9872B2D30E03C874F
:1021A0002B87A401440D511D47FC5A95588F4F8B26
:1021B00069817A81660D711D67FC7A957E876D87CE
:1021C0007989C71608F051CF2C2D30E04D815E8102
:1021D000420F531FA985BA854A9FC0014B9F900D9E
:1021E0005A9F900D1124FC01E80DF91DF88BEF8723
:1021F000852D612C4F89588D420F531F5E8B4D8B5F
:10220000671408F050C044244394480E877041F48A
:10221000C1010196EB89FC89E20DF31DD4901C01EC
:10222000D7FE19C0A98DBA8DED91FC91662D70E095
:10223000B1E0BB1219C0AB1217C02D853E85620FED
:10224000731F0484F585E02D2F8138854D895E89C3
:10225000898D9A8D0995DD0C6394842DD1CF1E82D2
:102260001D821C821B8288CF4B815C81640F751F8D
:10227000AB85BC856A9FC0016B9F900D7A9F900DC6
:10228000112469817A81680F791F0684F785E02D12
:10229000EF80F88409851A859D014F855889898DBD
:1022A0009A8D0995D8CF570CC3948ACF6A960FB6EA
:1022B000F894DEBF0FBECDBFDF91CF911F910F917C
:1022C000FF90EF90DF90CF90BF90AF909F908F9056
:1022D0007F906F905F904F903F902F9008958F92D6
:1022E0009F92AF92CF92EF92FF920F931F93CF9353
:1022F000DF93EC01262F898D9A8D009709F051C04C
:102300006A30D1F41D861C868D8948E0849F900137
:1023100011248E859F85820F931F9F878E8781E072
:1023200090E0DF91CF911F910F91FF90EF90CF90B0
:10233000AF909F908F9008956D3089F3CC88AD88D1
:102340008F898823C1F08C859D8536E0C39E800DE2
:10235000911D1124488559854817590764F44E8505
:102360005F851D861C8638E0A39EC0011124840F62
:10237000951F9F878E87EA88FB88088919894E8573
:102380005F856C857D85CE010E944A0F2C898C85E6
:102390009D8546E0249F800D911D11249D878C878B
:1023A000BECF6A3069F41D861C86FC013896E49124
:1023B0002D898E859F85E29F800D911D1124ADCFC3
:1023C0006D3009F4ACCFFC0134963491631708F4F6
:1023D000A6CF3296E491E61708F4A1CFFC0132961D
:1023E00085909490462F431B342F47E0349F800CF8
:1023F000911C1124F401329634913196E4913323E7
:10240000A9F1EE2399F1CC88F4013596E491AD88D9
:102410004F89442301F10E2E000CFF0BE30FF11D39
:10242000CE9EA001CF9E500D11246C857D85460F58
:10243000571F68857985641775076CF44E855F852D
:102440001D861C86FC013896E491AE9E400D511D00
:1024500011245F874E87EA88FB88088919894E8591
:102460005F856C857D85CE010E944A0FF40134960C
:10247000E4912C898C859D85E29F800D911D11240E
:102480008DCF6F927F928F929F92AF92BF92CF9299
:10249000DF92EF92FF920F931F93CF93DF93EC01A4
:1024A0006B015A0139014801E881F9810284F38501
:1024B000E02D0995E881F9810288F389E02D8701F3
:1024C0009301A501B601CE010995A501480D591D3D
:1024D00041505109E881F9810288F389E02D930187
:1024E000B601CE010995E881F9810088F189E02DD6
:1024F0009401A501B601CE010995C60CD71CB60101
:1025000061507109E881F9810088F189E02D940119
:10251000A501CE010995E881F9810688F789E02DAA
:10252000CE01DF91CF911F910F91FF90EF90DF903F
:10253000CF90BF90AF909F908F907F906F900994B5
:102540006F927F928F929F92AF92BF92CF92DF92C3
:10255000EF92FF920F931F93CF93DF935C01EB01F8
:102560006A01490138018701DC01ED91FC91621794
:10257000730719F5641675062CF0962D872D3A0110
:10258000C92ED82E9601261937092F5F3F4F048C8C
:10259000F58DE02DA301BE01C5010995DF91CF9115
:1025A0001F910F91FF90EF90DF90CF90BF90AF9071
:1025B0009F908F907F906F9008954615570591F4E6
:1025C0002617370724F0892D4B01C22FD82F9E01E3
:1025D000281939092F5F3F4F068CF78DE02DA60192
:1025E000B401DACF0284F385E02D0995D501ED9190
:1025F000FC910488F589E02D83019401A601BE01B8
:10260000C5010995D501ED91FC910688F789E02D6A
:10261000C501DF91CF911F910F91FF90EF90DF9057
:10262000CF90BF90AF909F908F907F906F900994C4
:10263000EF92FF920F931F93DC011A960D911C915C
:102640001B9718962D913C911997ED91FC9100A044
:10265000F1A1E02D7B0150E040E070E060E00995E1
:102660001F910F91FF90EF9008954F925F926F929C
:102670007F928F929F92AF92BF92CF92DF92EF9212
:10268000FF920F931F93CF93DF936C012B015A019D
:1026900039014801DC01ED91FC910284F385E02DC4
:1026A0000995E201640C751CD601ED91FC91C615EB
:1026B000D7055CF40088F189E02D87019401A5011C
:1026C000BE01C60109952196EFCF0688F789E02D56
:1026D000C601DF91CF911F910F91FF90EF90DF9096
:1026E000CF90BF90AF909F908F907F906F905F90B2
:1026F0004F9009948F929F92AF92BF92CF92DF92A8
:10270000EF92FF920F931F93CF93DF93EC015B0146
:102710004A016901E881F9810284F385E02D099578
:1027200095012C0D3D1D21503109E881F981048866
:10273000F589E02D78018401A401B501CE01099548
:10274000E881F9810688F789E02DCE01DF91CF91EC
:102750001F910F91FF90EF90DF90CF90BF90AF90BF
:102760009F908F9009948F929F92AF92BF92CF9239
:10277000DF92EF92FF920F931F93CF93DF93EC01C1
:102780005B014A0169017801E881F9810284F385DE
:10279000E02D0995C80CD91C860101501109E8816A
:1027A000F9810488F589E02D9501A401B501CE01D8
:1027B0000995E881F9810688F789E02DCE01DF913E
:1027C000CF911F910F91FF90EF90DF90CF90BF902E
:1027D000AF909F908F900994EF92FF920F931F9369
:1027E000DC01ED91FC9100A0F1A1E02D09951F9174
:1027F0000F91FF90EF9008950F931F93DC01ED91DF
:10280000FC91068CF78DE02D09951F910F9108958D
:102810000F931F93DC01ED91FC91048CF58DE02D5D
:1028200009951F910F910895DC01ED91FC910084B1
:10283000F185E02D09943F924F925F926F927F92C3
:102840008F929F92AF92BF92CF92DF92EF92FF92C0
:102850000F931F93CF93DF935C017B014A016901C2
:10286000390187E0680E711C93E0759467949A951E
:10287000E1F72B01400E511E10E000E0312CD0E0BA
:10288000C0E0CE0187709927330C892B59F4FE01E3
:1028900083E0F595E7958A95E1F7E00FF11FE80DE4
:1028A000F91D349037FE0AC021E030E0A701B501E0
:1028B0006C0F7D1F8FE393E00E9414142196CC16B9
:1028C000DD06F9F68FEFE81AF80A060D171DE41475
:1028D000F504A9F6DF91CF911F910F91FF90EF9032
:1028E000DF90CF90BF90AF909F908F907F906F9030
:1028F0005F904F903F9008952F923F924F925F923A
:102900006F927F928F929F92AF92BF92CF92DF92FF
:10291000EF92FF920F931F93CF93DF9300D000D0DD
:1029200000D0CDB7DEB73C016A013E832D83FC8227
:10293000EB825801A41AB50AB7FE03C0B194A19462
:10294000B1088D809E80861A970A97FE03C09194E5
:10295000819491088A149B045CF0902F812F0D8143
:102960001E819D838E839C2D8D2D6B01692F782F69
:102970000C151D055CF09D818E817E836D83692F12
:10298000782F902F812F8601C92ED82E1601201A5C
:10299000310A2B012D813E81421A530A57FE03C092
:1029A000519441945108710137FE03C03FEFE31A7F
:1029B000F30AF594E7948D819E81861797075CF55D
:1029C000A1E0B0E0BA83A983C016D1064CF1D301CF
:1029D000ED91FC910484F585E02D2B813C81A801CB
:1029E0006D817E818A149B041CF04D815E81B8014B
:1029F000C3010995E418F508F7FE0AC02D813E8150
:102A000089819A81280F391F3E832D83E20CF31CA4
:102A10000F5F1F4FD9CF2FEF3FEF3A832983D4CFDA
:102A200026960FB6F894DEBF0FBECDBFDF91CF91D3
:102A30001F910F91FF90EF90DF90CF90BF90AF90DC
:102A40009F908F907F906F905F904F903F902F90CE
:102A50000895089590E080E008950F931F93CF9319
:102A6000DF93182FC5E2D3E08B810E946C0589812A
:102A70009A81DC01ED91FC910190F081E02D612FB4
:102A8000099589819A810E94640B888362E08B8119
:102A90000E94100A109237028093360289819A812F
:102AA000DC01ED91FC910284F385E02D099500E0B5
:102AB000182F89819A81DC01ED91FC910284F385C4
:102AC000E02D0995802B912BDF91CF911F910F91D4
:102AD00008951F93CF93DF93182FC5E2D3E08B8126
:102AE0000E946C0589819A81DC01ED91FC91019035
:102AF000F081E02D612F099589819A810E94640BF4
:102B0000888361E08B810E94100A109237028093C3
:102B1000360289819A81DC01ED91FC910284F38572
:102B2000E02D0995DF91CF911F910895CF93DF9309
:102B3000EC0181E00E94691584FB992790F9988344
:102B400083FB992790F99A8382FB992790F99983BF
:102B500086FB992790F99B83881F8827881F8C8381
:102B6000DF91CF910895682F616080E00E944B0C47
:102B70000E94480770932D0360932C0383E10E9409
:102B800069158770B9F48091290390912A03892BE4
:102B9000A9F30E94480720912C0330912D03621B5A
:102BA000730B8091290390912A038617970730F7BA
:102BB00080E0089561E08BE00E944B0C60E080E0D3
:102BC0000E944B0C81E008958F929F92AF92BF922A
:102BD000EF92FF920F931F93CF93DF937C01EB0152
:102BE00080E50E9469158F5F880F90E09983888344
:102BF00086E40E946915082F10E00F5F1F4F1D83A8
:102C00000C83A881B0E020E03FE24AE350E00E945C
:102C1000EC216C507E4F8F4F9F4F38EE832E33E068
:102C2000932EA12CB12CA50194010E940622D8015B
:102C30000E9428226C507E4F8F4F9F4FA501940118
:102C40000E9406222A873B874C875D8781E50E9488
:102C50002D158C01112702C0000F111F9A95E2F764
:102C60000F5F1F4F1F830E83A881B0E020E03FE27B
:102C70004AE350E00E94EC216C507E4F8F4F9F4FF3
:102C8000A50194010E940622D8010E94EC216C50FB
:102C90007E4F8F4F9F4FA50194010E9406222E87E1
:102CA0003F87488B598B80E70E9469158F5F880F9B
:102CB00090E09B838A8381E70E942D159C019927D0
:102CC00002C0880F991F3A95E2F701969987888785
:102CD000F7012381222331F02E813F81821B930B48
:102CE00099878887AA81B0E020E03FE24AE350E07C
:102CF0000E94EC216C507E4F8F4F9F4F28EE822E0A
:102D000023E0922EA12CB12CA50194010E94062251
:102D1000A885B9850E94EC216C507E4F8F4F9F4F44
:102D2000A50194010E9406222A8B3B8B4C8B5D8B64
:102D3000DF91CF911F910F91FF90EF90BF90AF90D7
:102D40009F908F9008952091450330914603C901CB
:102D5000079697FD079623E0959587952A95E1F7C5
:102D60002091430330914403829FA001839F500D23
:102D7000929F500D112470E060E080915E0390916D
:102D80005F030C9460230E945B23FB0101900020F1
:102D9000E9F73197AF01461B570BDC01ED91FC9130
:102DA0000280F381E02D09948F929F92AF92BF929F
:102DB000EF92FF920F931F93CF93DF93CDB7DEB7C0
:102DC000A1970FB6F894DEBF0FBECDBF7C01FA010C
:102DD000CB0119A2223008F42AE08E010F5D1F4FAB
:102DE000822E912CB12CA12CBF01A50194010E942F
:102DF0000622F901CA016A300CF5605DD8016E93B4
:102E00008D01232B242B252B79F790E080E0109760
:102E100021F0BD01C7010E94C516A1960FB6F89416
:102E2000DEBF0FBECDBFDF91CF911F910F91FF90FD
:102E3000EF90BF90AF909F908F900895695CDECF28
:102E40000F931F93CF93DF93EC010E94C5168C0163
:102E500066E571E0CE010E94C516800F911FDF91DB
:102E6000CF911F910F91089585ED8093BC008091C3
:102E7000800290918102A0918202B0918302079614
:102E8000A11DB11D23E0B695A795979587952A9525
:102E9000D1F72091BC0024FD03C010927E0208955A
:102EA0004091800250918102609182027091830270
:102EB000452B462B472B69F30097A105B10541F03F
:102EC00025E32A95F1F700000197A109B109E1CFA7
:102ED00080917F020C94EF091F920F920FB60F9210
:102EE00011242F933F934F935F936F937F938F930F
:102EF0009F93AF93BF93EF93FF9388E892E00E9474
:102F00001606FF91EF91BF91AF919F918F917F91A5
:102F10006F915F914F913F912F910F900FBE0F9046
:102F20001F9018951F920F920FB60F9211242F9396
:102F30008F939F93EF93FF93E0919802F091990202
:102F40008081E0919E02F0919F0282FD1BC09081E2
:102F50008091A1028F5F8F732091A202821741F0AE
:102F6000E091A102F0E0E857FD4F958F8093A10218
:102F7000FF91EF919F918F912F910F900FBE0F9026
:102F80001F9018958081F4CF1F920F920FB60F9269
:102F900011242F933F938F939F93AF93BF9380916F
:102FA000290290912A02A0912B02B0912C0230911B
:102FB000280223E0230F2D3758F50196A11DB11DDE
:102FC000209328028093290290932A02A0932B0237
:102FD000B0932C0280912D0290912E02A0912F028D
:102FE000B09130020196A11DB11D80932D029093E6
:102FF0002E02A0932F02B0933002BF91AF919F9108
:103000008F913F912F910F900FBE0F901F901895A9
:1030100026E8230F0296A11DB11DD2CF1F920F9259
:103020000FB60F9211242F933F934F935F936F939B
:103030007F938F939F93AF93BF93EF93FF93809171
:10304000B900887F803609F44AC0F0F5883209F467
:10305000A7C018F5803109F49BC0B8F4882309F49F
:10306000F9C0883009F494C0FF91EF91BF91AF91FE
:103070009F918F917F916F915F914F913F912F9190
:103080000F900FBE0F901F901895883109F488C0DB
:10309000803251F780935C0214C0803409F49DC0E3
:1030A00040F48033B9F38833F9F680935C0285EC01
:1030B000B0C0803509F485C0883509F496C08834DD
:1030C00099F60E943417D0CF883909F48CC038F5AE
:1030D000883729F050F4883611F0803729F683E0DC
:1030E00080937E021092270257C0883809F47BC073
:1030F000803919F0803809F0B7CF809127028032EB
:1031000008F071C0E091270281E08E0F80932702C2
:103110008091BB00F0E0E95FFD4F80833DC0803BC4
:1031200039F0E0F4803A09F479C0883A09F09CCF8C
:1031300084E080937E021092060210920502E091D4
:103140003402F091350209958091050281110FC07A
:1031500081E0809305021092E50109C0803C09F4EA
:10316000A6CF883C09F4A3CF883B09F07DCFE0913E
:10317000060281E08E0F80930602F0E0EB51FE4FD5
:1031800080818093BB00909106028091050229C046
:10319000809159028093BB0085EC8093BC0064CF82
:1031A00090915B0280915A02981758F5E0915B026A
:1031B00081E08E0F80935B02F0E0E85CFD4F808140
:1031C000E9CFE0915B0281E08E0F80935B028091FA
:1031D000BB00F0E0E85CFD4F808390915B02809142
:1031E0005A029817C8F285E8D8CFE0915B0281E0D7
:1031F0008E0F80935B028091BB00F0E0E85CFD4F96
:10320000808380915D0281115CCF81E080935802C0
:1032100084EA8093BC0010927E0226CF85EC8093D6
:10322000BC0010927E0280912702803230F4E0913F
:103230002702F0E0E95FFD4F10826091270270E005
:10324000E0913202F091330287E092E0099510920A
:1032500027020ACF10925C0234CFE8E8F2E0138232
:10326000128248EE53E060E070E044835583668349
:1032700077838AE091E09183808385EC90E0958765
:10328000848784EC90E09787868780EC90E0918B30
:10329000808B81EC90E0938B828B82EC90E0958B1D
:1032A000848B86EC90E0978B868B118E128E138E1A
:1032B000148EA3E3B3E013961C921E9212971496F9
:1032C0004D935D936D937C9317978CE191E01196EC
:1032D0009C938E93EFE3F3E01382128220E830E0B8
:1032E0003583248380E490E0978386833187208729
:1032F00093878287168A158614861786168681E03C
:10330000858B848B2FEF3FEF338B228B318B208B80
:10331000878B108E128E118E8EE291E091838083C6
:10332000148E138EB68FA58F10A2178E8FEF84A3E5
:1033300085A386A387A380A740E85AE166E070E0F2
:1033400045AB56AB67AB70AF40EA56E861E070E062
:1033500041AF52AF63AF74AF80E586AF17AEE5E221
:10336000F3E0B283A18389E28383158214821682FB
:103370000895CF93DF93CDB7DEB7A1970FB6F8943A
:10338000DEBF0FBECDBF789484B5826084BD84B5A6
:10339000816084BD85B5826085BD85B5816085BD50
:1033A00080916E00816080936E0010928100809108
:1033B0008100826080938100809181008160809390
:1033C0008100809180008160809380008091B100B5
:1033D00084608093B1008091B00081608093B000E0
:1033E00080917A00846080937A0080917A00826074
:1033F00080937A0080917A00816080937A00809136
:103400007A00806880937A001092C100E09198025F
:10341000F091990282E08083E0919402F09195020C
:103420001082E0919602F09197028FEC80831092C7
:10343000A002E0919C02F0919D0286E08083E091E1
:103440009A02F0919B02808180618083E0919A02D0
:10345000F0919B02808188608083E0919A02F091D4
:103460009B02808180688083E0919A02F0919B02A8
:1034700080818F7D808310923702109236021092E5
:103480008502109284020E94D10986E995E090930A
:1034900035028093340287E995E09093330280935C
:1034A000320284EF91E090932A038093290380EC09
:1034B0000E9469158E3E09F086C089E80E94691550
:1034C000682F616089E80E944B0C60E088E80E94E8
:1034D0004B0C61E080E80E944B0C61E08FEF0E9492
:1034E0004B0C60E080E00E944B0C81E90E94691562
:1034F00080932E0361E080E00E944B0C60E08FEF30
:103500000E944B0C60E080E80E944B0C80E60E9419
:103510006915682F626180E60E944B0C60E270E0E2
:1035200084E40E94740C6FEF81E00E944B0C61E018
:1035300080E80E944B0C61E08FEF0E944B0C60E032
:1035400080E00E944B0C66E08FEF0E944B0C83E8FA
:103550000E946915682F646083E80E944B0C67E045
:103560008FEF0E944B0C61E081E80E944B0C61E000
:1035700080E80E944B0C6BE684E90E944B0C60E0F3
:1035800083E80E944B0C0E94480770932D036093C0
:103590002C0383E80E94691581111CC080912903C6
:1035A00090912A03892BA9F30E94480720912C03AC
:1035B00030912D03621B730B8091290390912A0394
:1035C0008617970730F769E571E088E892E00E9476
:1035D0002017FFCF61E083E80E944B0C82E90E9434
:1035E0006915F82EE894F7F8D82EDD1CDD24DD1CD3
:1035F00060E081E80E944B0C66E08FEF0E944B0C6C
:1036000083E80E946915682F6B7F83E80E944B0C4A
:1036100061E08FEF0E944B0C61E080E00E944B0C58
:1036200060E08FEF0E944B0C60E080E80E944B0C42
:10363000809128030E946C058091260390912703B6
:10364000DC01ED91FC910190F081E02D60EB09959A
:1036500080912603909127030E94640B8093250399
:1036600066E0809128030E94100A1092370280932E
:1036700036028E01095E1F4F580167E0E62EEA947C
:10368000EE2079F08091260390912703DC01ED91E3
:10369000FC910284F385E02D0995F50181935F018A
:1036A000EECF61E08FEF0E944B0C60E08FE40E9450
:1036B0004B0C6CE28EE40E944B0C60E08FEF0E949A
:1036C0004B0C64EB86EB0E944B0C5CE0E52ED110BA
:1036D00001C0E12C90E080E0E1E0F0E0482F469569
:1036E0004695469550E09801240F351FD9012C913D
:1036F000682F67708E1510F0F91234C0400F511FFB
:10370000DF0102C0AA0FBB1F6A95E2F7BD016095F9
:103710002623DA012C938F5F803301F780912803F1
:103720000E946C058091260390912703DC01ED91A6
:10373000FC910190F081E02D60EB099547E0F42EBB
:103740008091260390912703FA94FF20A9F0F801B5
:1037500061918F01DC01ED91FC910190F081E02DF0
:103760000995EECF30E002C0359527956A95E2F7CE
:1037700020FFD1CF9F5FCFCF0E94640B80932503A2
:1037800061E08FEF0E944B0C60E080E00E944B0CE8
:1037900060E08FEF0E944B0C60E089E00E944B0CD0
:1037A00060E080E10E944B0C60E081E10E944B0CE4
:1037B00061E084E20E944B0C6FEF85E20E944B0CAB
:1037C00060E085E70E944B0C61E08FEF0E944B0C9C
:1037D0006CE28EE40E944B0C60E088E40E944B0C8B
:1037E00060E280E30E944B0C60E08FEF0E944B0C84
:1037F00069E080E30E944B0C60E084E50E944B0C82
:1038000064E081E30E944B0C63E082E30E944B0C76
:1038100063E880E40E944B0C65E286E40E944B0C56
:1038200060E080E60E944B0C60E087E20E944B0C57
:1038300066E080E50E944B0C60E081E50E944B0C45
:1038400066E982E50E944B0C68E086E50E944B0C1D
:1038500060E387E50E944B0C60E081E60E944B0C20
:1038600060E082E60E944B0C60E084E60E944B0C14
:1038700060E085E60E944B0C60EA86E60E944B0CF5
:1038800061E08FEF0E944B0C62E382E20E944B0CDE
:1038900064E187E40E944B0C6FEF89E40E944B0CBB
:1038A00060E08AE40E944B0C60E08FEF0E944B0CBA
:1038B0006AE08AE70E944B0C60E08BE70E944B0CA9
:1038C00061E288E70E944B0C61E08FEF0E944B0C95
:1038D00064E383E20E944B0C60E082E40E944B0CA4
:1038E0006FEF84E40E944B0C66E285E40E944B0C6F
:1038F00065E086E40E944B0C60E480E40E944B0C7F
:1039000066E08EE00E944B0C6AE180E20E944B0C64
:1039100060E483E40E944B0C60E08FEF0E944B0C4C
:1039200063E084E30E944B0C64E485E30E944B0C4B
:1039300061E08FEF0E944B0C64E081E30E944B0C2E
:1039400069E08BE40E944B0C65E08CE40E944B0C18
:1039500064E08DE40E944B0C60E08FEF0E944B0C02
:1039600060E084E40E944B0C60E285E40E944B0C12
:1039700068E087E40E944B0C68E288E40E944B0CEC
:1039800060E087E60E944B0C64E080E70E944B0CED
:1039900061E081E70E944B0C6EEF82E70E944B0CC6
:1039A00060E086E70E944B0C60E087E70E944B0CCA
:1039B00061E08FEF0E944B0C61E08DE00E944B0CA8
:1039C00060E08FEF0E944B0C61E080E80E944B0C9E
:1039D00068EF81E00E944B0C61E08FEF0E944B0C7E
:1039E00061E08EE80E944B0C61E080E00E944B0C8D
:1039F00060E08FEF0E944B0C60E080E80E944B0C6F
:103A000064E08AE00E944B0C84E80E946915682FEC
:103A10006F7E84E80E944B0C61E08BE00E944B0CAF
:103A2000CE014D960E949615BE016F5F7F4FCE016D
:103A30004D960E94E4158D8D882309F4F3C08B8583
:103A40009C85AD85BE858C57924FAF4FBF4F2F8D54
:103A5000222309F4ECC04B855C856D857E854E5430
:103A60005D4F6F4F7F4F440F551F661F771F840FA9
:103A7000951FA61FB71F28A1222361F04F855889E3
:103A800069897A894C565D4F6F4F7F4F840F951F20
:103A9000A61FB71F29A1222361F04B895C896D897C
:103AA0007E894A5D5D4F6F4F7F4F840F951FA61F24
:103AB000B71F80932F0390933003A0933103B093EB
:103AC000320368EE81E00E944B0CC0902F03D0902F
:103AD0003003E0903103F0903203CE014D960E9406
:103AE0009615BE016F5F7F4FCE014D960E94E41583
:103AF0008D8D882309F4A8C08B859C85AD85BE85F6
:103B00008C57924FAF4FBF4F2F8D222309F4A1C086
:103B10004B855C856D857E854E545D4F6F4F7F4F25
:103B2000440F551F661F771F840F951FA61FB71FD1
:103B300018A1112361F04F85588969897A894C56FB
:103B40005D4F6F4F7F4F840F951FA61FB71F29A191
:103B5000222309F49AC02C013D01E6E24E0EE2E078
:103B60005E1E611C711CC414D504E604F70408F43D
:103B70008CC0AB81B0E020E03FE24AE350E00E941D
:103B8000EC214B015C01F4EF8F0EF1E09F1EA11CB4
:103B9000B11CA70196012419350946095709A8EE59
:103BA000B3E00E94EC212B013C01C501B40120EDE2
:103BB00037E040E050E00E940622420E531E641E91
:103BC000751EC501B40128EE33E040E050E00E94CC
:103BD0000622C301B2010E940622112331F08F8117
:103BE0009885280F391F411D511D70E060E0211597
:103BF000310541055105F1F189019A010150110981
:103C00002109310970E060E0D901C8018827892BBA
:103C10008A2B8B2B59F136952795179507956F5F52
:103C20007F4FF2CF86E39BE0A0E0B0E010CF2E8D77
:103C3000222309F420CF4B855C856D857E854C560B
:103C40005D4F6F4F7F4F13CF86E39BE0A0E0B0E066
:103C50005BCF2E8D222309F46BCF4B855C856D8560
:103C60007E854C565D4F6F4F7F4F5ECF762F662718
:103C7000602B712B81E70E94740CC0922F03D092AD
:103C80003003E0923103F092320361E081E00E9460
:103C90004B0C80E40E94B315882309F494CC62E0B5
:103CA00081E00E944B0C80E00E94B315882309F448
:103CB0008ACC68EE81E00E944B0C61E080E80E94B3
:103CC0004B0C61E08FEF0E944B0C60E080E00E94A3
:103CD0004B0C60912E0381E90E944B0C61E080E067
:103CE0000E944B0C60E08FEF0E944B0C60E080E87C
:103CF0000E944B0C62E080E00E944B0C64E670E096
:103D000080E090E00E94160780915E0390915F032F
:103D1000892B11F10E94A31620914503309146038F
:103D20008091430390914403213231050CF044C14A
:103D3000B9016052710977FF02C06F5F7F4F7595BF
:103D400067958357910997FD019600E210E023E7FC
:103D500030E04EE955E043C12091450330914603E0
:103D6000C901079697FD0796B3E095958795BA9593
:103D7000E1F72091430330914403AC01429FC0011D
:103D8000439F900D529F900D11240E9436229093D4
:103D90005F0380935E03892B09F0BCCF60E08FE363
:103DA00093E00E94350F01E010E01093520300935E
:103DB00051031093500300934F030E94A3160E94D7
:103DC000BA0D0E94A316109352030093510310934F
:103DD000500300934F0381E0809353038093540377
:103DE00083E290E090934C0380934B0310924E0338
:103DF00010924D0361E871E08FE393E00E94201779
:103E000082E080935303809354038EE190E090937B
:103E10004C0380934B0382E190E090934E03809398
:103E20004D036BE871E08FE393E00E94201783E07D
:103E300080935303809354038AE090E090934C0363
:103E400080934B0388E290E090934E0380934D0360
:103E500062E971E08FE393E00E9420170E94BA0D9F
:103E600060ED77E080E090E00E94160700E010E04F
:103E70000E94480770932D0360932C0383E10E94F6
:103E80006915877009F085C28091290390912A03F2
:103E9000892BA1F30E94480720912C0330912D0318
:103EA000621B730B8091290390912A038617970751
:103EB00028F781E080932B03CC24CA94DC2C8091DA
:103EC0002B0310922B03882331F069E971E088E815
:103ED00092E00E94C51666E571E088E892E00E94D3
:103EE000C51654E0C516D10409F45CC20E94A3169D
:103EF00010924C0310924B0310924E0310924D03FC
:103F00000D2C000CEE08FF082AE0B701A601F7FE11
:103F10000DC06DE28FE393E00E946F114427552797
:103F2000BA014C195D096E097F092AE08FE393E01D
:103F30000E94D41662EA71E08FE393E00E94C516F6
:103F40000E94BA0D66E571E088E892E00E94C5160D
:103F500062E370E080E090E00E94160765EA71E09D
:103F600088E892E00E94C5162AE0B701A601F7FE94
:103F70000DC06DE288E892E00E943806442755277C
:103F8000BA014C195D096E097F092AE088E892E0C0
:103F90000E94D41664E670E080E090E00E9416076C
:103FA0000115110509F464CF0E940206882309F463
:103FB0005FCF0E9400005CCFB9016054710977FFA8
:103FC00002C06F5F7F4F759567958255910997FD88
:103FD000019600E410E022E530E04EE757E09595C9
:103FE00087950E941B1482E08093610380915C039B
:103FF00090915D03892B09F4DEC08CE3809360030C
:1040000010923702109236021092850210928402AA
:104010000E94D10986E995E090933502809334029D
:1040200087E995E090933302809332028091670391
:1040300087FD1DC00E94760561E0809167030E94A4
:10404000A50661E070E080E090E00E94160760E065
:10405000809167030E94A5066AE070E080E090E02E
:104060000E94160761E0809167030E94A506809177
:104070005C0390915D03892B09F454C12091740372
:1040800030917503409176035091770360E074E2BC
:1040900084EF90E00E940622205131094109510924
:1040A00056954795379527952093B80064E08AE99F
:1040B00095E00E94B20C6091450361508FE393E05C
:1040C0000E945A0D64E086E995E00E94B20C80914E
:1040D000610360E1813009F064E18FE393E00E94C5
:1040E0005A0D64E082E995E00E94B20C8FE880935B
:1040F0007C0380914303909144038038910509F03B
:104100002AC180914503909146038034910509F0BE
:1041100032C180916103813009F01BC18FE9809326
:104120007C0312E16AED8FE393E00E945A0D612F48
:104130008FE393E00E945A0D61E88FE393E00E94C1
:104140005A0D60917C038FE393E00E945A0D69ED54
:104150008FE393E00E945A0D8091610362E2813007
:1041600009F061EF8FE393E00E945A0D66E08CE85E
:1041700095E00E94B20C80915C0390915D03892BC5
:1041800009F4FDC0209178033091790340917A03BE
:1041900050917B0360E074E284EF90E00E9406227D
:1041A0002051310941095109569547953795279571
:1041B0002093B800F3CD809165030E94760580912D
:1041C00066030E94760580916503082E000C990B0A
:1041D000FC01EE5AF54FE491F0E0EE0FFF1FE25CB8
:1041E000F54F2591349130936D0320936C03FC01BE
:1041F000EA59F54FE491E093720380916603082E2B
:10420000000C990BFC01EE5AF54FE491F0E0EE0F33
:10421000FF1FE25CF54FA591B491B0936F03A0939B
:104220006E03FC01EA59F54FE491E09373038C911E
:10423000E82BEC9380915A0390915B03892B89F1D1
:104240001FB7F89480913102811124C0ECE5FAE0A7
:104250008491E0E7FAE09491E82FF0E0EE0FFF1F81
:10426000E85BF54FA591B491EC91E92321F461E06D
:104270008AE00E94A5068AE00E9476058CB58061DE
:104280008CBD8CB580648CBD8DE00E9476058BE082
:104290000E947605809131028F5F809331021FBFAB
:1042A000C5CE809163030E947605809164030E94CD
:1042B000760580916303082E000C990BFC01EE5AE1
:1042C000F54FE491F0E0EE0FFF1FE25CF54F259112
:1042D00034913093690320936803FC01EA59F54F48
:1042E000E491E093700380916403082E000C990B15
:1042F000FC01EE5AF54FE491F0E0EE0FFF1FE25C97
:10430000F54FA591B491B0936B03A0936A03FC01A0
:10431000EA59F54FE491E09371038C91E095E8231D
:10432000EC9384CE80915A0390915B03892B31F0FA
:1043300080917D0390917E030E94B70DE0916E0302
:10434000F0916F039081809173038095892380831E
:10435000ADCE8FECE4CE8036910569F480914503B3
:1043600090914603409739F480916103813029F49C
:1043700080E180937C0312E0D5CE8FEAFACFE09102
:104380006E03F0916F03808190917303892B80837A
:1043900005CD8EE10E942D156C0161E08BE00E943D
:1043A0004B0C8DCD65EB71E088E892E00E94201700
:1043B0000E94BA0D0E94A316F3CD8EE291E0909375
:1043C000400380933F0380915E0390915F030097C9
:1043D00011F00C94D22208950E94F721A59F900D10
:1043E000B49F900DA49F800D911D11240895A29F4C
:1043F000B001B39FC001A39F700D811D1124911DB9
:10440000B29F700D811D1124911D0895A1E21A2EF5
:10441000AA1BBB1BFD010DC0AA1FBB1FEE1FFF1F68
:10442000A217B307E407F50720F0A21BB30BE40BB8
:10443000F50B661F771F881F991F1A9469F76095FF
:104440007095809590959B01AC01BD01CF010895B9
:10445000B7FF0C94EC210E94EC21821B930B089572
:10446000EE0FFF1F0590F491E02D09940F931F9319
:10447000CF93DF938230910510F482E090E0E091D9
:104480008103F091820330E020E0B0E0A0E03097BB
:1044900099F42115310509F44AC0281B390B243041
:1044A0003105D8F58A819B816115710589F1FB0180
:1044B00093838283FE0111C0408151810281138167
:1044C00048175907E0F04817590799F4109761F019
:1044D00012960C93129713961C933296CF01DF918C
:1044E000CF911F910F910895009381031093820340
:1044F000F4CF2115310551F04217530738F0A901C7
:10450000DB019A01BD01DF01F801C1CFEF01F9CF55
:104510009093820380938103CDCFFE01E20FF31FBE
:10452000819391932250310939832883D7CF2091E9
:104530007F0330918003232B41F4209102013091BD
:1045400003013093800320937F0320910001309179
:1045500001012115310541F42DB73EB74091040109
:1045600050910501241B350BE0917F03F0918003EE
:10457000E217F307A0F42E1B3F0B2817390778F03A
:10458000AC014E5F5F4F2417350748F04E0F5F1F99
:104590005093800340937F03819391939FCFF0E0EA
:1045A000E0E09CCFCF93DF930097E9F0FC013297D6
:1045B00013821282A0918103B0918203ED0130E059
:1045C00020E01097A1F420813181820F931F209168
:1045D0007F03309180032817390709F061C0F093F9
:1045E0008003E0937F03DF91CF910895EA01CE1716
:1045F000DF07E8F54A815B819E0141155105B1F75E
:10460000E901FB83EA8349915991C40FD51FEC1747
:10461000FD0761F4808191810296840F951FE90165
:1046200099838883828193819B838A83F0E0E0E091
:1046300012968D919C9113970097B9F52D913C910D
:104640001197CD010296820F931F20917F03309125
:1046500080032817390739F6309751F510928203F5
:1046600010928103B0938003A0937F03BCCFD383C8
:10467000C28340815181840F951FC817D90761F407
:104680004E5F5F4F88819981480F591F5183408346
:104690008A819B81938382832115310509F0B0CFF4
:1046A000F0938203E09381039ECFFD01DC01C0CF34
:1046B00013821282D7CF81E090E0F8940C946723A4
:1046C000DC0101C06D9341505040E0F7089515E0C2
:1046D000C1E4D5E004C0FE010E9430222196C2341C
:0846E000D107C9F7F894FFCFE0
:1046E8000000830380000000000038069805C50517
:1046F8008506F605D405E80500000000350B080B13
:104708002A159505010BEE0ADF0A000000006F115B
:1047180098052A152915FB0895051414EC13081497
:10472800FC137C149505350FDE0E6B08B4083513A1
:104738001813A01241120D0A004661696C656420C5
:10474800746F2064657465637420616E6420696E9B
:10475800697469616C697A652073656E736F72211B
:104768000054657374204F4C4544005343524545EB
:104778004E00313238783634002054494D454F5573
:1047880054006D6D0044697374616E636520286D13
:104798006D293A2000206F7574206F662072616E53
:0447A8006765200021
:00000001FF
